{
  "contractName": "StarNotary",
  "abi": [
    {
      "inputs": [
        {
          "internalType": "string",
          "name": "name_",
          "type": "string"
        },
        {
          "internalType": "string",
          "name": "symbol_",
          "type": "string"
        }
      ],
      "stateMutability": "nonpayable",
      "type": "constructor"
    },
    {
      "anonymous": false,
      "inputs": [
        {
          "indexed": true,
          "internalType": "address",
          "name": "owner",
          "type": "address"
        },
        {
          "indexed": true,
          "internalType": "address",
          "name": "approved",
          "type": "address"
        },
        {
          "indexed": true,
          "internalType": "uint256",
          "name": "tokenId",
          "type": "uint256"
        }
      ],
      "name": "Approval",
      "type": "event"
    },
    {
      "anonymous": false,
      "inputs": [
        {
          "indexed": true,
          "internalType": "address",
          "name": "owner",
          "type": "address"
        },
        {
          "indexed": true,
          "internalType": "address",
          "name": "operator",
          "type": "address"
        },
        {
          "indexed": false,
          "internalType": "bool",
          "name": "approved",
          "type": "bool"
        }
      ],
      "name": "ApprovalForAll",
      "type": "event"
    },
    {
      "anonymous": false,
      "inputs": [
        {
          "indexed": true,
          "internalType": "address",
          "name": "from",
          "type": "address"
        },
        {
          "indexed": true,
          "internalType": "address",
          "name": "to",
          "type": "address"
        },
        {
          "indexed": true,
          "internalType": "uint256",
          "name": "tokenId",
          "type": "uint256"
        }
      ],
      "name": "Transfer",
      "type": "event"
    },
    {
      "inputs": [
        {
          "internalType": "address",
          "name": "to",
          "type": "address"
        },
        {
          "internalType": "uint256",
          "name": "tokenId",
          "type": "uint256"
        }
      ],
      "name": "approve",
      "outputs": [],
      "stateMutability": "nonpayable",
      "type": "function"
    },
    {
      "inputs": [
        {
          "internalType": "address",
          "name": "owner",
          "type": "address"
        }
      ],
      "name": "balanceOf",
      "outputs": [
        {
          "internalType": "uint256",
          "name": "",
          "type": "uint256"
        }
      ],
      "stateMutability": "view",
      "type": "function",
      "constant": true
    },
    {
      "inputs": [
        {
          "internalType": "uint256",
          "name": "tokenId",
          "type": "uint256"
        }
      ],
      "name": "getApproved",
      "outputs": [
        {
          "internalType": "address",
          "name": "",
          "type": "address"
        }
      ],
      "stateMutability": "view",
      "type": "function",
      "constant": true
    },
    {
      "inputs": [
        {
          "internalType": "address",
          "name": "owner",
          "type": "address"
        },
        {
          "internalType": "address",
          "name": "operator",
          "type": "address"
        }
      ],
      "name": "isApprovedForAll",
      "outputs": [
        {
          "internalType": "bool",
          "name": "",
          "type": "bool"
        }
      ],
      "stateMutability": "view",
      "type": "function",
      "constant": true
    },
    {
      "inputs": [],
      "name": "name",
      "outputs": [
        {
          "internalType": "string",
          "name": "",
          "type": "string"
        }
      ],
      "stateMutability": "view",
      "type": "function",
      "constant": true
    },
    {
      "inputs": [
        {
          "internalType": "uint256",
          "name": "tokenId",
          "type": "uint256"
        }
      ],
      "name": "ownerOf",
      "outputs": [
        {
          "internalType": "address",
          "name": "",
          "type": "address"
        }
      ],
      "stateMutability": "view",
      "type": "function",
      "constant": true
    },
    {
      "inputs": [
        {
          "internalType": "address",
          "name": "from",
          "type": "address"
        },
        {
          "internalType": "address",
          "name": "to",
          "type": "address"
        },
        {
          "internalType": "uint256",
          "name": "tokenId",
          "type": "uint256"
        }
      ],
      "name": "safeTransferFrom",
      "outputs": [],
      "stateMutability": "nonpayable",
      "type": "function"
    },
    {
      "inputs": [
        {
          "internalType": "address",
          "name": "from",
          "type": "address"
        },
        {
          "internalType": "address",
          "name": "to",
          "type": "address"
        },
        {
          "internalType": "uint256",
          "name": "tokenId",
          "type": "uint256"
        },
        {
          "internalType": "bytes",
          "name": "data",
          "type": "bytes"
        }
      ],
      "name": "safeTransferFrom",
      "outputs": [],
      "stateMutability": "nonpayable",
      "type": "function"
    },
    {
      "inputs": [
        {
          "internalType": "address",
          "name": "operator",
          "type": "address"
        },
        {
          "internalType": "bool",
          "name": "approved",
          "type": "bool"
        }
      ],
      "name": "setApprovalForAll",
      "outputs": [],
      "stateMutability": "nonpayable",
      "type": "function"
    },
    {
      "inputs": [
        {
          "internalType": "uint256",
          "name": "",
          "type": "uint256"
        }
      ],
      "name": "starsForSale",
      "outputs": [
        {
          "internalType": "uint256",
          "name": "",
          "type": "uint256"
        }
      ],
      "stateMutability": "view",
      "type": "function",
      "constant": true
    },
    {
      "inputs": [
        {
          "internalType": "bytes4",
          "name": "interfaceId",
          "type": "bytes4"
        }
      ],
      "name": "supportsInterface",
      "outputs": [
        {
          "internalType": "bool",
          "name": "",
          "type": "bool"
        }
      ],
      "stateMutability": "view",
      "type": "function",
      "constant": true
    },
    {
      "inputs": [],
      "name": "symbol",
      "outputs": [
        {
          "internalType": "string",
          "name": "",
          "type": "string"
        }
      ],
      "stateMutability": "view",
      "type": "function",
      "constant": true
    },
    {
      "inputs": [
        {
          "internalType": "uint256",
          "name": "",
          "type": "uint256"
        }
      ],
      "name": "tokenIdToStarInfo",
      "outputs": [
        {
          "internalType": "string",
          "name": "name",
          "type": "string"
        }
      ],
      "stateMutability": "view",
      "type": "function",
      "constant": true
    },
    {
      "inputs": [
        {
          "internalType": "uint256",
          "name": "tokenId",
          "type": "uint256"
        }
      ],
      "name": "tokenURI",
      "outputs": [
        {
          "internalType": "string",
          "name": "",
          "type": "string"
        }
      ],
      "stateMutability": "view",
      "type": "function",
      "constant": true
    },
    {
      "inputs": [
        {
          "internalType": "address",
          "name": "from",
          "type": "address"
        },
        {
          "internalType": "address",
          "name": "to",
          "type": "address"
        },
        {
          "internalType": "uint256",
          "name": "tokenId",
          "type": "uint256"
        }
      ],
      "name": "transferFrom",
      "outputs": [],
      "stateMutability": "nonpayable",
      "type": "function"
    },
    {
      "inputs": [
        {
          "internalType": "string",
          "name": "_name",
          "type": "string"
        },
        {
          "internalType": "uint256",
          "name": "_tokenId",
          "type": "uint256"
        }
      ],
      "name": "createStar",
      "outputs": [],
      "stateMutability": "nonpayable",
      "type": "function"
    },
    {
      "inputs": [
        {
          "internalType": "uint256",
          "name": "_tokenId",
          "type": "uint256"
        },
        {
          "internalType": "uint256",
          "name": "_price",
          "type": "uint256"
        }
      ],
      "name": "putStarUpForSale",
      "outputs": [],
      "stateMutability": "nonpayable",
      "type": "function"
    },
    {
      "inputs": [
        {
          "internalType": "uint256",
          "name": "_tokenId",
          "type": "uint256"
        }
      ],
      "name": "buyStar",
      "outputs": [],
      "stateMutability": "payable",
      "type": "function",
      "payable": true
    },
    {
      "inputs": [
        {
          "internalType": "uint256",
          "name": "_tokenId",
          "type": "uint256"
        }
      ],
      "name": "lookUptokenIdToStarInfo",
      "outputs": [
        {
          "internalType": "string",
          "name": "",
          "type": "string"
        }
      ],
      "stateMutability": "view",
      "type": "function",
      "constant": true
    },
    {
      "inputs": [
        {
          "internalType": "uint256",
          "name": "_tokenId1",
          "type": "uint256"
        },
        {
          "internalType": "uint256",
          "name": "_tokenId2",
          "type": "uint256"
        }
      ],
      "name": "exchangeStars",
      "outputs": [],
      "stateMutability": "nonpayable",
      "type": "function"
    },
    {
      "inputs": [
        {
          "internalType": "address",
          "name": "_to1",
          "type": "address"
        },
        {
          "internalType": "uint256",
          "name": "_tokenId",
          "type": "uint256"
        }
      ],
      "name": "transferStar",
      "outputs": [],
      "stateMutability": "nonpayable",
      "type": "function"
    }
  ],
  "bytecode": "0x60806040523480156200001157600080fd5b506040516200355438038062003554833981810160405281019062000037919062000197565b818181600090805190602001906200005192919062000075565b5080600190805190602001906200006a92919062000075565b50505050506200037a565b82805462000083906200029f565b90600052602060002090601f016020900481019282620000a75760008555620000f3565b82601f10620000c257805160ff1916838001178555620000f3565b82800160010185558215620000f3579182015b82811115620000f2578251825591602001919060010190620000d5565b5b50905062000102919062000106565b5090565b5b808211156200012157600081600090555060010162000107565b5090565b60006200013c620001368462000233565b6200020a565b9050828152602081018484840111156200015557600080fd5b6200016284828562000269565b509392505050565b600082601f8301126200017c57600080fd5b81516200018e84826020860162000125565b91505092915050565b60008060408385031215620001ab57600080fd5b600083015167ffffffffffffffff811115620001c657600080fd5b620001d4858286016200016a565b925050602083015167ffffffffffffffff811115620001f257600080fd5b62000200858286016200016a565b9150509250929050565b60006200021662000229565b9050620002248282620002d5565b919050565b6000604051905090565b600067ffffffffffffffff8211156200025157620002506200033a565b5b6200025c8262000369565b9050602081019050919050565b60005b83811015620002895780820151818401526020810190506200026c565b8381111562000299576000848401525b50505050565b60006002820490506001821680620002b857607f821691505b60208210811415620002cf57620002ce6200030b565b5b50919050565b620002e08262000369565b810181811067ffffffffffffffff821117156200030257620003016200033a565b5b80604052505050565b7f4e487b7100000000000000000000000000000000000000000000000000000000600052602260045260246000fd5b7f4e487b7100000000000000000000000000000000000000000000000000000000600052604160045260246000fd5b6000601f19601f8301169050919050565b6131ca806200038a6000396000f3fe60806040526004361061012a5760003560e01c806342842e0e116100ab578063a22cb4651161006f578063a22cb46514610405578063b88d4fde1461042e578063c87b56dd14610457578063d7830ccb14610494578063e7152a5c146104d1578063e985e9c5146104fa5761012a565b806342842e0e1461030e5780636352211e1461033757806370a082311461037457806395d89b41146103b15780639697c0a1146103dc5761012a565b806315e0afa5116100f257806315e0afa51461023a5780631967fd981461026357806323b872dd146102a05780632f1c34ef146102c9578063316a4361146102e55761012a565b806301ffc9a71461012f5780630564b1301461016c57806306fdde03146101a9578063081812fc146101d4578063095ea7b314610211575b600080fd5b34801561013b57600080fd5b5061015660048036038101906101519190612457565b610537565b60405161016391906128a7565b60405180910390f35b34801561017857600080fd5b50610193600480360381019061018e91906124fd565b610619565b6040516101a09190612aa4565b60405180910390f35b3480156101b557600080fd5b506101be610631565b6040516101cb91906128c2565b60405180910390f35b3480156101e057600080fd5b506101fb60048036038101906101f691906124fd565b6106c3565b6040516102089190612840565b60405180910390f35b34801561021d57600080fd5b506102386004803603810190610233919061241b565b610709565b005b34801561024657600080fd5b50610261600480360381019061025c9190612526565b610821565b005b34801561026f57600080fd5b5061028a600480360381019061028591906124fd565b61090b565b60405161029791906128c2565b60405180910390f35b3480156102ac57600080fd5b506102c760048036038101906102c29190612315565b6109b1565b005b6102e360048036038101906102de91906124fd565b610a11565b005b3480156102f157600080fd5b5061030c60048036038101906103079190612526565b610b8e565b005b34801561031a57600080fd5b5061033560048036038101906103309190612315565b610c20565b005b34801561034357600080fd5b5061035e600480360381019061035991906124fd565b610c40565b60405161036b9190612840565b60405180910390f35b34801561038057600080fd5b5061039b600480360381019061039691906122b0565b610cc7565b6040516103a89190612aa4565b60405180910390f35b3480156103bd57600080fd5b506103c6610d7f565b6040516103d391906128c2565b60405180910390f35b3480156103e857600080fd5b5061040360048036038101906103fe91906124a9565b610e11565b005b34801561041157600080fd5b5061042c600480360381019061042791906123df565b610e67565b005b34801561043a57600080fd5b5061045560048036038101906104509190612364565b610e7d565b005b34801561046357600080fd5b5061047e600480360381019061047991906124fd565b610edf565b60405161048b91906128c2565b60405180910390f35b3480156104a057600080fd5b506104bb60048036038101906104b691906124fd565b610f47565b6040516104c891906128c2565b60405180910390f35b3480156104dd57600080fd5b506104f860048036038101906104f3919061241b565b610fef565b005b34801561050657600080fd5b50610521600480360381019061051c91906122d9565b611074565b60405161052e91906128a7565b60405180910390f35b60007f80ac58cd000000000000000000000000000000000000000000000000000000007bffffffffffffffffffffffffffffffffffffffffffffffffffffffff1916827bffffffffffffffffffffffffffffffffffffffffffffffffffffffff1916148061060257507f5b5e139f000000000000000000000000000000000000000000000000000000007bffffffffffffffffffffffffffffffffffffffffffffffffffffffff1916827bffffffffffffffffffffffffffffffffffffffffffffffffffffffff1916145b80610612575061061182611108565b5b9050919050565b60076020528060005260406000206000915090505481565b60606000805461064090612cc9565b80601f016020809104026020016040519081016040528092919081815260200182805461066c90612cc9565b80156106b95780601f1061068e576101008083540402835291602001916106b9565b820191906000526020600020905b81548152906001019060200180831161069c57829003601f168201915b5050505050905090565b60006106ce82611172565b6004600083815260200190815260200160002060009054906101000a900473ffffffffffffffffffffffffffffffffffffffff169050919050565b600061071482610c40565b90508073ffffffffffffffffffffffffffffffffffffffff168373ffffffffffffffffffffffffffffffffffffffff161415610785576040517f08c379a000000000000000000000000000000000000000000000000000000000815260040161077c90612a44565b60405180910390fd5b8073ffffffffffffffffffffffffffffffffffffffff166107a46111bd565b73ffffffffffffffffffffffffffffffffffffffff1614806107d357506107d2816107cd6111bd565b611074565b5b610812576040517f08c379a000000000000000000000000000000000000000000000000000000000815260040161080990612a84565b60405180910390fd5b61081c83836111c5565b505050565b3373ffffffffffffffffffffffffffffffffffffffff1661084183610c40565b73ffffffffffffffffffffffffffffffffffffffff16148061089657503373ffffffffffffffffffffffffffffffffffffffff1661087e82610c40565b73ffffffffffffffffffffffffffffffffffffffff16145b6108d5576040517f08c379a00000000000000000000000000000000000000000000000000000000081526004016108cc906128e4565b60405180910390fd5b60006108e083610c40565b905060006108ed83610c40565b90506108fa8282866109b1565b6109058183856109b1565b50505050565b600660205280600052604060002060009150905080600001805461092e90612cc9565b80601f016020809104026020016040519081016040528092919081815260200182805461095a90612cc9565b80156109a75780601f1061097c576101008083540402835291602001916109a7565b820191906000526020600020905b81548152906001019060200180831161098a57829003601f168201915b5050505050905081565b6109c26109bc6111bd565b8261127e565b610a01576040517f08c379a00000000000000000000000000000000000000000000000000000000081526004016109f890612904565b60405180910390fd5b610a0c838383611313565b505050565b6000600760008381526020019081526020016000205411610a67576040517f08c379a0000000000000000000000000000000000000000000000000000000008152600401610a5e90612a64565b60405180910390fd5b6000600760008381526020019081526020016000205490506000610a8a83610c40565b9050813411610ace576040517f08c379a0000000000000000000000000000000000000000000000000000000008152600401610ac590612a04565b60405180910390fd5b610ad98133856109b1565b6000610ae48261160d565b90508073ffffffffffffffffffffffffffffffffffffffff166108fc849081150290604051600060405180830381858888f19350505050158015610b2c573d6000803e3d6000fd5b5082341115610b88573373ffffffffffffffffffffffffffffffffffffffff166108fc8434610b5b9190612bdf565b9081150290604051600060405180830381858888f19350505050158015610b86573d6000803e3d6000fd5b505b50505050565b3373ffffffffffffffffffffffffffffffffffffffff16610bae83610c40565b73ffffffffffffffffffffffffffffffffffffffff1614610c04576040517f08c379a0000000000000000000000000000000000000000000000000000000008152600401610bfb906128e4565b60405180910390fd5b8060076000848152602001908152602001600020819055505050565b610c3b83838360405180602001604052806000815250610e7d565b505050565b600080610c4c83611617565b9050600073ffffffffffffffffffffffffffffffffffffffff168173ffffffffffffffffffffffffffffffffffffffff161415610cbe576040517f08c379a0000000000000000000000000000000000000000000000000000000008152600401610cb590612a24565b60405180910390fd5b80915050919050565b60008073ffffffffffffffffffffffffffffffffffffffff168273ffffffffffffffffffffffffffffffffffffffff161415610d38576040517f08c379a0000000000000000000000000000000000000000000000000000000008152600401610d2f906129c4565b60405180910390fd5b600360008373ffffffffffffffffffffffffffffffffffffffff1673ffffffffffffffffffffffffffffffffffffffff168152602001908152602001600020549050919050565b606060018054610d8e90612cc9565b80601f0160208091040260200160405190810160405280929190818152602001828054610dba90612cc9565b8015610e075780601f10610ddc57610100808354040283529160200191610e07565b820191906000526020600020905b815481529060010190602001808311610dea57829003601f168201915b5050505050905090565b6000604051806020016040528084815250905080600660008481526020019081526020016000206000820151816000019080519060200190610e549291906120d4565b50905050610e623383611654565b505050565b610e79610e726111bd565b8383611872565b5050565b610e8e610e886111bd565b8361127e565b610ecd576040517f08c379a0000000000000000000000000000000000000000000000000000000008152600401610ec490612904565b60405180910390fd5b610ed9848484846119df565b50505050565b6060610eea82611172565b6000610ef4611a3b565b90506000815111610f145760405180602001604052806000815250610f3f565b80610f1e84611a52565b604051602001610f2f92919061281c565b6040516020818303038152906040525b915050919050565b6060600660008381526020019081526020016000206000018054610f6a90612cc9565b80601f0160208091040260200160405190810160405280929190818152602001828054610f9690612cc9565b8015610fe35780601f10610fb857610100808354040283529160200191610fe3565b820191906000526020600020905b815481529060010190602001808311610fc657829003601f168201915b50505050509050919050565b3373ffffffffffffffffffffffffffffffffffffffff1661100f82610c40565b73ffffffffffffffffffffffffffffffffffffffff1614611065576040517f08c379a000000000000000000000000000000000000000000000000000000000815260040161105c906128e4565b60405180910390fd5b6110703383836109b1565b5050565b6000600560008473ffffffffffffffffffffffffffffffffffffffff1673ffffffffffffffffffffffffffffffffffffffff16815260200190815260200160002060008373ffffffffffffffffffffffffffffffffffffffff1673ffffffffffffffffffffffffffffffffffffffff16815260200190815260200160002060009054906101000a900460ff16905092915050565b60007f01ffc9a7000000000000000000000000000000000000000000000000000000007bffffffffffffffffffffffffffffffffffffffffffffffffffffffff1916827bffffffffffffffffffffffffffffffffffffffffffffffffffffffff1916149050919050565b61117b81611b76565b6111ba576040517f08c379a00000000000000000000000000000000000000000000000000000000081526004016111b190612a24565b60405180910390fd5b50565b600033905090565b816004600083815260200190815260200160002060006101000a81548173ffffffffffffffffffffffffffffffffffffffff021916908373ffffffffffffffffffffffffffffffffffffffff160217905550808273ffffffffffffffffffffffffffffffffffffffff1661123883610c40565b73ffffffffffffffffffffffffffffffffffffffff167f8c5be1e5ebec7d5bd14f71427d1e84f3dd0314c0f7b2291e5b200ac8c7c3b92560405160405180910390a45050565b60008061128a83610c40565b90508073ffffffffffffffffffffffffffffffffffffffff168473ffffffffffffffffffffffffffffffffffffffff1614806112cc57506112cb8185611074565b5b8061130a57508373ffffffffffffffffffffffffffffffffffffffff166112f2846106c3565b73ffffffffffffffffffffffffffffffffffffffff16145b91505092915050565b8273ffffffffffffffffffffffffffffffffffffffff1661133382610c40565b73ffffffffffffffffffffffffffffffffffffffff1614611389576040517f08c379a000000000000000000000000000000000000000000000000000000000815260040161138090612944565b60405180910390fd5b600073ffffffffffffffffffffffffffffffffffffffff168273ffffffffffffffffffffffffffffffffffffffff1614156113f9576040517f08c379a00000000000000000000000000000000000000000000000000000000081526004016113f090612984565b60405180910390fd5b6114068383836001611bb7565b8273ffffffffffffffffffffffffffffffffffffffff1661142682610c40565b73ffffffffffffffffffffffffffffffffffffffff161461147c576040517f08c379a000000000000000000000000000000000000000000000000000000000815260040161147390612944565b60405180910390fd5b6004600082815260200190815260200160002060006101000a81549073ffffffffffffffffffffffffffffffffffffffff02191690556001600360008573ffffffffffffffffffffffffffffffffffffffff1673ffffffffffffffffffffffffffffffffffffffff168152602001908152602001600020600082825403925050819055506001600360008473ffffffffffffffffffffffffffffffffffffffff1673ffffffffffffffffffffffffffffffffffffffff16815260200190815260200160002060008282540192505081905550816002600083815260200190815260200160002060006101000a81548173ffffffffffffffffffffffffffffffffffffffff021916908373ffffffffffffffffffffffffffffffffffffffff160217905550808273ffffffffffffffffffffffffffffffffffffffff168473ffffffffffffffffffffffffffffffffffffffff167fddf252ad1be2c89b69c2b068fc378daa952ba7f163c4a11628f55a4df523b3ef60405160405180910390a46116088383836001611cdd565b505050565b6000819050919050565b60006002600083815260200190815260200160002060009054906101000a900473ffffffffffffffffffffffffffffffffffffffff169050919050565b600073ffffffffffffffffffffffffffffffffffffffff168273ffffffffffffffffffffffffffffffffffffffff1614156116c4576040517f08c379a00000000000000000000000000000000000000000000000000000000081526004016116bb906129e4565b60405180910390fd5b6116cd81611b76565b1561170d576040517f08c379a000000000000000000000000000000000000000000000000000000000815260040161170490612964565b60405180910390fd5b61171b600083836001611bb7565b61172481611b76565b15611764576040517f08c379a000000000000000000000000000000000000000000000000000000000815260040161175b90612964565b60405180910390fd5b6001600360008473ffffffffffffffffffffffffffffffffffffffff1673ffffffffffffffffffffffffffffffffffffffff16815260200190815260200160002060008282540192505081905550816002600083815260200190815260200160002060006101000a81548173ffffffffffffffffffffffffffffffffffffffff021916908373ffffffffffffffffffffffffffffffffffffffff160217905550808273ffffffffffffffffffffffffffffffffffffffff16600073ffffffffffffffffffffffffffffffffffffffff167fddf252ad1be2c89b69c2b068fc378daa952ba7f163c4a11628f55a4df523b3ef60405160405180910390a461186e600083836001611cdd565b5050565b8173ffffffffffffffffffffffffffffffffffffffff168373ffffffffffffffffffffffffffffffffffffffff1614156118e1576040517f08c379a00000000000000000000000000000000000000000000000000000000081526004016118d8906129a4565b60405180910390fd5b80600560008573ffffffffffffffffffffffffffffffffffffffff1673ffffffffffffffffffffffffffffffffffffffff16815260200190815260200160002060008473ffffffffffffffffffffffffffffffffffffffff1673ffffffffffffffffffffffffffffffffffffffff16815260200190815260200160002060006101000a81548160ff0219169083151502179055508173ffffffffffffffffffffffffffffffffffffffff168373ffffffffffffffffffffffffffffffffffffffff167f17307eab39ab6107e8899845ad3d59bd9653f200f220920489ca2b5937696c31836040516119d291906128a7565b60405180910390a3505050565b6119ea848484611313565b6119f684848484611ce3565b611a35576040517f08c379a0000000000000000000000000000000000000000000000000000000008152600401611a2c90612924565b60405180910390fd5b50505050565b606060405180602001604052806000815250905090565b606060006001611a6184611e7a565b01905060008167ffffffffffffffff811115611aa6577f4e487b7100000000000000000000000000000000000000000000000000000000600052604160045260246000fd5b6040519080825280601f01601f191660200182016040528015611ad85781602001600182028036833780820191505090505b509050600082602001820190505b600115611b6b578080600190039150507f3031323334353637383961626364656600000000000000000000000000000000600a86061a8153600a8581611b55577f4e487b7100000000000000000000000000000000000000000000000000000000600052601260045260246000fd5b0494506000851415611b6657611b6b565b611ae6565b819350505050919050565b60008073ffffffffffffffffffffffffffffffffffffffff16611b9883611617565b73ffffffffffffffffffffffffffffffffffffffff1614159050919050565b6001811115611cd757600073ffffffffffffffffffffffffffffffffffffffff168473ffffffffffffffffffffffffffffffffffffffff1614611c4b5780600360008673ffffffffffffffffffffffffffffffffffffffff1673ffffffffffffffffffffffffffffffffffffffff1681526020019081526020016000206000828254611c439190612bdf565b925050819055505b600073ffffffffffffffffffffffffffffffffffffffff168373ffffffffffffffffffffffffffffffffffffffff1614611cd65780600360008573ffffffffffffffffffffffffffffffffffffffff1673ffffffffffffffffffffffffffffffffffffffff1681526020019081526020016000206000828254611cce9190612b89565b925050819055505b5b50505050565b50505050565b6000611d048473ffffffffffffffffffffffffffffffffffffffff166120b1565b15611e6d578373ffffffffffffffffffffffffffffffffffffffff1663150b7a02611d2d6111bd565b8786866040518563ffffffff1660e01b8152600401611d4f949392919061285b565b602060405180830381600087803b158015611d6957600080fd5b505af1925050508015611d9a57506040513d601f19601f82011682018060405250810190611d979190612480565b60015b611e1d573d8060008114611dca576040519150601f19603f3d011682016040523d82523d6000602084013e611dcf565b606091505b50600081511415611e15576040517f08c379a0000000000000000000000000000000000000000000000000000000008152600401611e0c90612924565b60405180910390fd5b805181602001fd5b63150b7a0260e01b7bffffffffffffffffffffffffffffffffffffffffffffffffffffffff1916817bffffffffffffffffffffffffffffffffffffffffffffffffffffffff191614915050611e72565b600190505b949350505050565b600080600090507a184f03e93ff9f4daa797ed6e38ed64bf6a1f0100000000000000008310611efe577a184f03e93ff9f4daa797ed6e38ed64bf6a1f0100000000000000008381611ef4577f4e487b7100000000000000000000000000000000000000000000000000000000600052601260045260246000fd5b0492506040810190505b6d04ee2d6d415b85acef81000000008310611f61576d04ee2d6d415b85acef81000000008381611f57577f4e487b7100000000000000000000000000000000000000000000000000000000600052601260045260246000fd5b0492506020810190505b662386f26fc100008310611fb657662386f26fc100008381611fac577f4e487b7100000000000000000000000000000000000000000000000000000000600052601260045260246000fd5b0492506010810190505b6305f5e1008310612005576305f5e1008381611ffb577f4e487b7100000000000000000000000000000000000000000000000000000000600052601260045260246000fd5b0492506008810190505b6127108310612050576127108381612046577f4e487b7100000000000000000000000000000000000000000000000000000000600052601260045260246000fd5b0492506004810190505b60648310612099576064838161208f577f4e487b7100000000000000000000000000000000000000000000000000000000600052601260045260246000fd5b0492506002810190505b600a83106120a8576001810190505b80915050919050565b6000808273ffffffffffffffffffffffffffffffffffffffff163b119050919050565b8280546120e090612cc9565b90600052602060002090601f0160209004810192826121025760008555612149565b82601f1061211b57805160ff1916838001178555612149565b82800160010185558215612149579182015b8281111561214857825182559160200191906001019061212d565b5b509050612156919061215a565b5090565b5b8082111561217357600081600090555060010161215b565b5090565b600061218a61218584612ae4565b612abf565b9050828152602081018484840111156121a257600080fd5b6121ad848285612c87565b509392505050565b60006121c86121c384612b15565b612abf565b9050828152602081018484840111156121e057600080fd5b6121eb848285612c87565b509392505050565b60008135905061220281613138565b92915050565b6000813590506122178161314f565b92915050565b60008135905061222c81613166565b92915050565b60008151905061224181613166565b92915050565b600082601f83011261225857600080fd5b8135612268848260208601612177565b91505092915050565b600082601f83011261228257600080fd5b81356122928482602086016121b5565b91505092915050565b6000813590506122aa8161317d565b92915050565b6000602082840312156122c257600080fd5b60006122d0848285016121f3565b91505092915050565b600080604083850312156122ec57600080fd5b60006122fa858286016121f3565b925050602061230b858286016121f3565b9150509250929050565b60008060006060848603121561232a57600080fd5b6000612338868287016121f3565b9350506020612349868287016121f3565b925050604061235a8682870161229b565b9150509250925092565b6000806000806080858703121561237a57600080fd5b6000612388878288016121f3565b9450506020612399878288016121f3565b93505060406123aa8782880161229b565b925050606085013567ffffffffffffffff8111156123c757600080fd5b6123d387828801612247565b91505092959194509250565b600080604083850312156123f257600080fd5b6000612400858286016121f3565b925050602061241185828601612208565b9150509250929050565b6000806040838503121561242e57600080fd5b600061243c858286016121f3565b925050602061244d8582860161229b565b9150509250929050565b60006020828403121561246957600080fd5b60006124778482850161221d565b91505092915050565b60006020828403121561249257600080fd5b60006124a084828501612232565b91505092915050565b600080604083850312156124bc57600080fd5b600083013567ffffffffffffffff8111156124d657600080fd5b6124e285828601612271565b92505060206124f38582860161229b565b9150509250929050565b60006020828403121561250f57600080fd5b600061251d8482850161229b565b91505092915050565b6000806040838503121561253957600080fd5b60006125478582860161229b565b92505060206125588582860161229b565b9150509250929050565b61256b81612c13565b82525050565b61257a81612c25565b82525050565b600061258b82612b46565b6125958185612b5c565b93506125a5818560208601612c96565b6125ae81612db9565b840191505092915050565b60006125c482612b51565b6125ce8185612b6d565b93506125de818560208601612c96565b6125e781612db9565b840191505092915050565b60006125fd82612b51565b6126078185612b7e565b9350612617818560208601612c96565b80840191505092915050565b6000612630602783612b6d565b915061263b82612dca565b604082019050919050565b6000612653602d83612b6d565b915061265e82612e19565b604082019050919050565b6000612676603283612b6d565b915061268182612e68565b604082019050919050565b6000612699602583612b6d565b91506126a482612eb7565b604082019050919050565b60006126bc601c83612b6d565b91506126c782612f06565b602082019050919050565b60006126df602483612b6d565b91506126ea82612f2f565b604082019050919050565b6000612702601983612b6d565b915061270d82612f7e565b602082019050919050565b6000612725602983612b6d565b915061273082612fa7565b604082019050919050565b6000612748602083612b6d565b915061275382612ff6565b602082019050919050565b600061276b601d83612b6d565b91506127768261301f565b602082019050919050565b600061278e601883612b6d565b915061279982613048565b602082019050919050565b60006127b1602183612b6d565b91506127bc82613071565b604082019050919050565b60006127d4601e83612b6d565b91506127df826130c0565b602082019050919050565b60006127f7603d83612b6d565b9150612802826130e9565b604082019050919050565b61281681612c7d565b82525050565b600061282882856125f2565b915061283482846125f2565b91508190509392505050565b60006020820190506128556000830184612562565b92915050565b60006080820190506128706000830187612562565b61287d6020830186612562565b61288a604083018561280d565b818103606083015261289c8184612580565b905095945050505050565b60006020820190506128bc6000830184612571565b92915050565b600060208201905081810360008301526128dc81846125b9565b905092915050565b600060208201905081810360008301526128fd81612623565b9050919050565b6000602082019050818103600083015261291d81612646565b9050919050565b6000602082019050818103600083015261293d81612669565b9050919050565b6000602082019050818103600083015261295d8161268c565b9050919050565b6000602082019050818103600083015261297d816126af565b9050919050565b6000602082019050818103600083015261299d816126d2565b9050919050565b600060208201905081810360008301526129bd816126f5565b9050919050565b600060208201905081810360008301526129dd81612718565b9050919050565b600060208201905081810360008301526129fd8161273b565b9050919050565b60006020820190508181036000830152612a1d8161275e565b9050919050565b60006020820190508181036000830152612a3d81612781565b9050919050565b60006020820190508181036000830152612a5d816127a4565b9050919050565b60006020820190508181036000830152612a7d816127c7565b9050919050565b60006020820190508181036000830152612a9d816127ea565b9050919050565b6000602082019050612ab9600083018461280d565b92915050565b6000612ac9612ada565b9050612ad58282612cfb565b919050565b6000604051905090565b600067ffffffffffffffff821115612aff57612afe612d8a565b5b612b0882612db9565b9050602081019050919050565b600067ffffffffffffffff821115612b3057612b2f612d8a565b5b612b3982612db9565b9050602081019050919050565b600081519050919050565b600081519050919050565b600082825260208201905092915050565b600082825260208201905092915050565b600081905092915050565b6000612b9482612c7d565b9150612b9f83612c7d565b9250827fffffffffffffffffffffffffffffffffffffffffffffffffffffffffffffffff03821115612bd457612bd3612d2c565b5b828201905092915050565b6000612bea82612c7d565b9150612bf583612c7d565b925082821015612c0857612c07612d2c565b5b828203905092915050565b6000612c1e82612c5d565b9050919050565b60008115159050919050565b60007fffffffff0000000000000000000000000000000000000000000000000000000082169050919050565b600073ffffffffffffffffffffffffffffffffffffffff82169050919050565b6000819050919050565b82818337600083830152505050565b60005b83811015612cb4578082015181840152602081019050612c99565b83811115612cc3576000848401525b50505050565b60006002820490506001821680612ce157607f821691505b60208210811415612cf557612cf4612d5b565b5b50919050565b612d0482612db9565b810181811067ffffffffffffffff82111715612d2357612d22612d8a565b5b80604052505050565b7f4e487b7100000000000000000000000000000000000000000000000000000000600052601160045260246000fd5b7f4e487b7100000000000000000000000000000000000000000000000000000000600052602260045260246000fd5b7f4e487b7100000000000000000000000000000000000000000000000000000000600052604160045260246000fd5b6000601f19601f8301169050919050565b7f596f752063616e27742073616c6520746865205374617220796f7520646f6e2760008201527f74206f776e656400000000000000000000000000000000000000000000000000602082015250565b7f4552433732313a2063616c6c6572206973206e6f7420746f6b656e206f776e6560008201527f72206f7220617070726f76656400000000000000000000000000000000000000602082015250565b7f4552433732313a207472616e7366657220746f206e6f6e20455243373231526560008201527f63656976657220696d706c656d656e7465720000000000000000000000000000602082015250565b7f4552433732313a207472616e736665722066726f6d20696e636f72726563742060008201527f6f776e6572000000000000000000000000000000000000000000000000000000602082015250565b7f4552433732313a20746f6b656e20616c7265616479206d696e74656400000000600082015250565b7f4552433732313a207472616e7366657220746f20746865207a65726f2061646460008201527f7265737300000000000000000000000000000000000000000000000000000000602082015250565b7f4552433732313a20617070726f766520746f2063616c6c657200000000000000600082015250565b7f4552433732313a2061646472657373207a65726f206973206e6f74206120766160008201527f6c6964206f776e65720000000000000000000000000000000000000000000000602082015250565b7f4552433732313a206d696e7420746f20746865207a65726f2061646472657373600082015250565b7f596f75206e65656420746f206861766520656e6f756768204574686572000000600082015250565b7f4552433732313a20696e76616c696420746f6b656e2049440000000000000000600082015250565b7f4552433732313a20617070726f76616c20746f2063757272656e74206f776e6560008201527f7200000000000000000000000000000000000000000000000000000000000000602082015250565b7f54686520537461722073686f756c6420626520757020666f722073616c650000600082015250565b7f4552433732313a20617070726f76652063616c6c6572206973206e6f7420746f60008201527f6b656e206f776e6572206f7220617070726f76656420666f7220616c6c000000602082015250565b61314181612c13565b811461314c57600080fd5b50565b61315881612c25565b811461316357600080fd5b50565b61316f81612c31565b811461317a57600080fd5b50565b61318681612c7d565b811461319157600080fd5b5056fea26469706673582212208df01a25a4edfb1a4915758a4b1578928a761f602eb374b9edc51b655091759764736f6c63430008010033",
  "immutableReferences": {},
  "source": "pragma solidity >=0.4.24;\n\n//Importing openzeppelin-solidity ERC-721 implemented Standard\nimport \"../node_modules/@openzeppelin/contracts/token/ERC721/ERC721.sol\";\n\n// StarNotary Contract declaration inheritance the ERC721 openzeppelin implementation\ncontract StarNotary is ERC721 {\n\n    constructor(string memory name_, string memory symbol_) ERC721 (name_, symbol_) {}\n\n    // Star data\n    struct Star {\n        string name;\n    }\n\n    // Implement Task 1 Add a name and symbol properties\n    // name: Is a short name to your token\n    // symbol: Is a short string like 'USD' -> 'American Dollar'\n    \n\n    // mapping the Star with the Owner Address\n    mapping(uint256 => Star) public tokenIdToStarInfo;\n    // mapping the TokenId and price\n    mapping(uint256 => uint256) public starsForSale;\n\n    \n    // Create Star using the Struct\n    function createStar(string memory _name, uint256 _tokenId) public { // Passing the name and tokenId as a parameters\n        Star memory newStar = Star(_name); // Star is an struct so we are creating a new Star\n        tokenIdToStarInfo[_tokenId] = newStar; // Creating in memory the Star -> tokenId mapping\n        _mint(msg.sender, _tokenId); // _mint assign the the star with _tokenId to the sender address (ownership)\n    }\n\n    // Putting an Star for sale (Adding the star tokenid into the mapping starsForSale, first verify that the sender is the owner)\n    function putStarUpForSale(uint256 _tokenId, uint256 _price) public {\n        require(ownerOf(_tokenId) == msg.sender, \"You can't sale the Star you don't owned\");\n        starsForSale[_tokenId] = _price;\n    }\n\n\n    // Function that allows you to convert an address into a payable address\n    function _make_payable(address x) internal pure returns (address payable) {\n        return payable(address(uint160(x)));\n    }\n\n    function buyStar(uint256 _tokenId) public  payable {\n        require(starsForSale[_tokenId] > 0, \"The Star should be up for sale\");\n        uint256 starCost = starsForSale[_tokenId];\n        address ownerAddress = ownerOf(_tokenId);\n        require(msg.value > starCost, \"You need to have enough Ether\");\n        transferFrom(ownerAddress, msg.sender, _tokenId); // We can't use _addTokenTo or_removeTokenFrom functions, now we have to use _transferFrom\n        address payable ownerAddressPayable = _make_payable(ownerAddress); // We need to make this conversion to be able to use transfer() function to transfer ethers\n        ownerAddressPayable.transfer(starCost);\n        if(msg.value > starCost) {\n            payable(msg.sender).transfer(msg.value - starCost);\n        }\n    }\n\n    // Implement Task 1 lookUptokenIdToStarInfo\n    function lookUptokenIdToStarInfo (uint _tokenId) public view returns (string memory) {\n        //1. You should return the Star saved in tokenIdToStarInfo mapping\n        return tokenIdToStarInfo[_tokenId].name;\n\n    }\n\n    // Implement Task 1 Exchange Stars function\n    function exchangeStars(uint256 _tokenId1, uint256 _tokenId2) public {\n        //1. Passing to star tokenId you will need to check if the owner of _tokenId1 or _tokenId2 is the sender\n        require((ownerOf(_tokenId1) == msg.sender) || (ownerOf(_tokenId2) == msg.sender), \"You can't sale the Star you don't owned\");\n        //2. You don't have to check for the price of the token (star)\n        //3. Get the owner of the two tokens (ownerOf(_tokenId1), ownerOf(_tokenId2)\n        address owner1 = ownerOf(_tokenId1);\n        address owner2 = ownerOf(_tokenId2);\n        //4. Use _transferFrom function to exchange the tokens.\n        transferFrom(owner1, owner2, _tokenId1);\n        transferFrom(owner2, owner1, _tokenId2);\n    }\n\n    // Implement Task 1 Transfer Stars\n    function transferStar(address _to1, uint256 _tokenId) public {\n        //1. Check if the sender is the ownerOf(_tokenId)\n        require(ownerOf(_tokenId) == msg.sender, \"You can't sale the Star you don't owned\");\n        //2. Use the transferFrom(from, to, tokenId); function to transfer the Star\n        transferFrom( msg.sender, _to1, _tokenId);\n    }\n\n}\n",
  "sourcePath": "/Users/ahmedkhattab/Desktop/blockchain_udacity/nd1309-p2-Decentralized-Star-Notary-Service-Starter-Code-main/contracts/StarNotary.sol",
  "compiler": {
    "name": "solc",
    "version": "0.8.1+commit.df193b15.Emscripten.clang"
  },
  "schemaVersion": "3.4.10",
  "updatedAt": "2022-12-09T09:06:26.316Z",
  "networkType": "ethereum",
  "devdoc": {
    "kind": "dev",
    "methods": {
      "approve(address,uint256)": {
        "details": "See {IERC721-approve}."
      },
      "balanceOf(address)": {
        "details": "See {IERC721-balanceOf}."
      },
      "getApproved(uint256)": {
        "details": "See {IERC721-getApproved}."
      },
      "isApprovedForAll(address,address)": {
        "details": "See {IERC721-isApprovedForAll}."
      },
      "name()": {
        "details": "See {IERC721Metadata-name}."
      },
      "ownerOf(uint256)": {
        "details": "See {IERC721-ownerOf}."
      },
      "safeTransferFrom(address,address,uint256)": {
        "details": "See {IERC721-safeTransferFrom}."
      },
      "safeTransferFrom(address,address,uint256,bytes)": {
        "details": "See {IERC721-safeTransferFrom}."
      },
      "setApprovalForAll(address,bool)": {
        "details": "See {IERC721-setApprovalForAll}."
      },
      "supportsInterface(bytes4)": {
        "details": "See {IERC165-supportsInterface}."
      },
      "symbol()": {
        "details": "See {IERC721Metadata-symbol}."
      },
      "tokenURI(uint256)": {
        "details": "See {IERC721Metadata-tokenURI}."
      },
      "transferFrom(address,address,uint256)": {
        "details": "See {IERC721-transferFrom}."
      }
    },
    "version": 1
  },
  "userdoc": {
    "kind": "user",
    "methods": {},
    "version": 1
  }
}